:020000040800F2
:1000000000280020211D0008B11C0008B71C0008B2
:10001000BD1C0008C31C0008C91C0008000000002B
:10002000000000000000000000000000CF1C0008DD
:10003000DB1C000800000000E71C0008F31C00089F
:10004000691D0008691D0008691D0008691D000878
:10005000691D0008691D0008691D0008691D000868
:10006000691D0008691D0008691D0008691D000858
:10007000691D0008691D0008691D0008691D000848
:10008000691D0008691D0008691D0008691D000838
:10009000691D0008691D0008691D0008691D000828
:1000A000691D0008691D0008691D0008691D000818
:1000B000011D0008691D000800000000691D0008FE
:1000C000691D00080000000000000000691D000814
:1000D00000000000691D0008691D00080000000004
:1000E000691D0008691D0008691D00080000000066
:1000F0000000000000000000000000000000000000
:0C01000000000000000000005FF808F1A3
:10010C0010B5054C237833B9044B13B10448AFF345
:10011C0000800123237010BD880000200000000027
:10012C009833000808B5034B1BB103490348AFF3E0
:10013C00008008BD000000008C00002098330008EF
:10014C0080B582B000AF00237B601DE0124A7B6853
:10015C00012142F82310114A7B68012142F8231037
:10016C000F4A7B68012142F823100E4A7B6852F833
:10017C0023000D4A7B6832F813300122194602F035
:10018C00F0F87B6801337B607B68022BDEDD00BFFF
:10019C0000BF0837BD4680BD0C00002018000020B1
:1001AC00000000203C0000204800002080B483B0F8
:1001BC0000AF7860094A7B6852F82330012B06D1D6
:1001CC00064A7B68002142F82310012300E000233B
:1001DC0018460C37BD4680BC704700BFA4000020F9
:1001EC0080B483B000AF7860044A7B68012142F888
:1001FC00231000BF0C37BD4680BC7047A400002004
:10020C0080B582B000AF00237B606DE03A4A7B681A
:10021C0052F8232039497B6841F82320384A7B68FF
:10022C0052F8232034497B6841F82320354A7B68F7
:10023C0052F8232034497B6831F8133019461046A4
:10024C0002F078F8034619462D4A7B6842F82310D1
:10025C00294A7B6852F8232029497B6851F82330BE
:10026C009A423ED1244A7B6852F8232023497B686A
:10027C0051F823309A4234D1204A7B6852F823201B
:10028C0022497B6851F823309A4216D01B4A7B686E
:10029C0052F823201D497B6841F82320174A7B68BC
:1002AC0052F82330002B1CD1194A7B68C82142F824
:1002BC0023107868FFF794FF13E0154A7B6852F817
:1002CC0023305A1E12497B6841F82320104A7B6860
:1002DC0052F82330002B04D10C4A7B68012142F8E0
:1002EC0023107B6801337B607B68022B8EDD00BFA3
:1002FC0000BF0837BD4680BD0C0000201800002050
:10030C00000000203C0000204800002024000020B9
:10031C003000002080B500AF874B1B68013B0E2BD3
:10032C0000F2048201A252F823F000BF750300080A
:10033C00BF03000881050008810400083907000884
:10034C003907000839070008390700083907000881
:10035C003907000839070008390700083907000871
:10036C00390700084306000801F000FA724B02221C
:10037C001A60714B1B68714A1360714B1B681946EC
:10038C00002001F0EBFB4FF47A71022001F0E6FB48
:10039C006B4B1B686B4A82FB03129211DB17D31A4F
:1003AC00694A1360694B684A1A60694B01221A60EA
:1003BC00C5E101F0DBF9664B01221A60654B9B68C5
:1003CC00012B09D14FF47A71022001F0C7FB5E4B6F
:1003DC001B68013B5C4A13605E4B1B68012B17D1F9
:1003EC00554B04221A605C4B1B681946002001F027
:1003FC00B5FB4FF47A71022001F0B0FB564B1B6831
:10040C00504A82FB03129211DB17D31A4E4A136027
:10041C000020FFF7CBFE0346002B00F0898101F092
:10042C0053FA454B1B68454A13604C4B1B684C4AAE
:10043C001360414B0F221A60484B0F221A60494B34
:10044C000C221A604FF4FA71002001F087FB002196
:10045C00012001F083FB0021022001F07FFB002131
:10046C00032001F07BFB394B3F4A1A603F4B384A63
:10047C001A605DE101F0A6F9354B01221A60354B8B
:10048C009B68012B09D14FF47A71022001F066FBB5
:10049C002D4B1B68013B2C4A13602E4B1B68012B08
:1004AC0017D1254B03221A60314B1B6819460020CB
:1004BC0001F054FB4FF47A71022001F04FFB2C4BEE
:1004CC001B68204A82FB03129211DB17D31A1E4AB7
:1004DC0013600020FFF76AFE0346002B00F02A8110
:1004EC0001F0F2F9144B1B68144A13601B4B1B6888
:1004FC001B4A1360104B0F221A60184B0F221A6004
:10050C00184B0C221A604FF4FA71002001F026FBF4
:10051C000021012001F022FB0021022001F01EFB32
:10052C000021032001F01AFB084B0F4A1A600F4BF5
:10053C00074A1A60FEE000BF500000205400002063
:10054C0064000020D34D6210B0000020C8000020D1
:10055C00740000203C0100206C000020580000209A
:10056C005C0000206000002070000020C40000200F
:10057C006800002001F010F9724B01221A60724BD6
:10058C009B68012B09D14FF47A71022001F0E6FA35
:10059C006E4B1B68013B6D4A13606B4B1B68012B48
:1005AC0017D16B4B1B681946002001F0D7FA694B29
:1005BC0002221A604FF47A71022001F0CFFA644BD8
:1005CC001B68654A82FB03129211DB17D31A5F4A30
:1005DC0013600020FFF7EAFD0346002B00F0AC800F
:1005EC0001F072F95B4B1B685C4A13605C4B1B6837
:1005FC005C4A1360574B0F221A60594B0F221A603A
:10060C00594B0C221A604FF4FA71002001F0A6FA33
:10061C000021012001F0A2FA0021022001F09EFA33
:10062C000021032001F09AFA504B514A1A60514BA9
:10063C00444A1A6080E0494B1B68022B24D14E4B74
:10064C001B68102B20D101F03FF94B4B00221A6094
:10065C00424B1B683F4A13603D4B1B6819460020F8
:10066C0001F07CFA4FF47A71022001F077FA384BE2
:10067C001B68394A82FB03129211DB17D31A334AD7
:10068C0013603A4B314A1A60344B1B68042B24D14B
:10069C00394B1B68102B20D101F016F9364B002278
:1006AC001A602E4B1B682B4A1360344B1B6819467F
:1006BC00002001F053FA4FF47A71022001F04EFA47
:1006CC002E4B1B68244A82FB03129211DB17D31AA0
:1006DC001E4A1360254B1D4A1A60204B1B68032BC6
:1006EC002CD1254B1B68102B28D101F0EDF8224B97
:1006FC0000221A60174B04221A60204B1B68194603
:10070C00002001F02BFA4FF47A71022001F026FA46
:10071C001A4B1B68104A82FB03129211DB17D31A77
:10072C000A4A1360114B094A1A6007E000BF06E041
:10073C0000BF04E000BF02E000BF00E000BF00BF4C
:10074C0080BD00BF740000203C010020B0000020E0
:10075C006400002050000020D34D62105400002093
:10076C00580000205C00002060000020C800002021
:10077C0070000020C4000020B80000206C00002095
:10078C0080B500AF844B1B68013B0E2B00F2FC8143
:10079C0001A252F823F000BFE10700082B08000863
:1007AC00DD090008ED080008950B0008950B000802
:1007BC00950B0008950B0008950B0008950B00088D
:1007CC00950B0008950B0008950B0008950B00087D
:1007DC009F0A000801F038F86F4B04221A606E4B28
:1007EC001B686E4A13606E4B1B681946012001F0A2
:1007FC00B5F94FF47A71032001F0B0F9684B1B681E
:10080C00684A82FB03129211DB17D31A664A1360F3
:10081C00664B654A1A60664B01221A60BDE100F016
:10082C00E7FF634B01221A60624BDB68012B09D195
:10083C004FF47A71032001F091F95B4B1B68013B7B
:10084C00594A13605B4B5B68012B17D1524B042246
:10085C001A60534B1B681946012001F07FF94FF4C5
:10086C007A71032001F07AF94D4B1B684D4A82FBDB
:10087C0003129211DB17D31A4B4A13600020FFF7B7
:10088C0095FC0346002B00F0818101F01DF84A4BCA
:10089C001B684A4A1360404B1B68404A1360464B26
:1008AC000F221A603C4B0F221A60454B0C221A6027
:1008BC004FF4FA71002001F051F90021012001F0F0
:1008CC004DF90021022001F049F90021032001F02B
:1008DC0045F93C4B3C4A1A60344B354A1A6055E199
:1008EC0000F0B2FF324B01221A60324BDB68012B55
:1008FC0009D14FF47A71032001F030F92A4B1B68AF
:10090C00013B294A13602B4B5B68012B12D1224B04
:10091C0003221A602D4B1B681946012001F01EF9A9
:10092C002A4B1B681F4A82FB03129211DB17D31A46
:10093C001D4A13600020FFF739FC0346002B00F022
:10094C00278100F0C1FF1C4B1B681C4A1360124B23
:10095C001B68124A1360184B0F221A600E4B0F22A1
:10096C001A60174B0C221A604FF4FA71002001F038
:10097C00F5F80021012001F0F1F80021022001F02E
:10098C00EDF80021032001F0E9F80E4B0E4A1A6035
:10099C00064B074A1A60FBE0580000205C00002060
:1009AC006C000020D34D6210B4000020C400002065
:1009BC00740000203C010020500000205400002056
:1009CC0060000020C800002070000020680000209B
:1009DC0000F024FF724B01221A60724BDB68012B72
:1009EC0009D14FF47A71032001F0B8F86E4B1B68F3
:1009FC00013B6D4A13606B4B5B68012B17D16B4B42
:100A0C001B681946012001F0A9F8694B02221A60F3
:100A1C004FF47A71032001F0A1F8644B1B68654A0E
:100A2C0082FB03129211DB17D31A5F4A136000206A
:100A3C00FFF7BCFB0346002B00F0AC8000F044FF3A
:100A4C005D4B1B685D4A1360594B1B685C4A136015
:100A5C00594B0F221A60564B0F221A60594B0C221D
:100A6C001A604FF4FA71002001F078F8002101208F
:100A7C0001F074F80021022001F070F8002103202D
:100A8C0001F06CF8504B514A1A60514B444A1A60B1
:100A9C0080E04B4B1B68022B24D14E4B1B68102B58
:100AAC0020D100F011FF4B4B00221A60444B1B6805
:100ABC003F4A13603D4B1B681946012001F04EF86C
:100ACC004FF47A71032001F049F8384B1B68394A0E
:100ADC0082FB03129211DB17D31A334A13603C4B7F
:100AEC00314A1A60364B1B68042B24D1394B1B68D6
:100AFC00102B20D100F0E8FE364B00221A60304B50
:100B0C001B682B4A1360344B1B681946012001F0FB
:100B1C0025F84FF47A71032001F020F82E4B1B6856
:100B2C00244A82FB03129211DB17D31A1E4A13605C
:100B3C00274B1D4A1A60224B1B68032B2CD1254BCB
:100B4C001B68102B28D100F0BFFE224B00221A602C
:100B5C00174B04221A60204B1B681946012000F029
:100B6C00FDFF4FF47A71032000F0F8FF1A4B1B685D
:100B7C00104A82FB03129211DB17D31A0A4A136034
:100B8C00134B094A1A6007E000BF06E000BF04E0FF
:100B9C0000BF02E000BF00E000BF00BF80BD00BF8F
:100BAC00740000203C010020B400002064000020F0
:100BBC0058000020D34D621050000020540000203B
:100BCC005C00002060000020C800002070000020A5
:100BDC00C4000020BC0000206C00002080B500AFD9
:100BEC008A4B1B680C3B032B00F2068101A252F8C6
:100BFC0023F000BF110C0008B10C00084F0D0008C9
:100C0C00050E0008824B02221A60824B1B68012BD6
:100C1C0006D14FF4FA71002000F0A0FF00F02AFE7C
:100C2C000220FFF7C3FA0346002B0FD000F04CFE56
:100C3C00794B1B684FF47A7202FB03F3774A13600B
:100C4C00754B01221A60714B0D221A600120FFF7BF
:100C5C00ADFA0346002B15D06F4B1B685A1C704B1A
:100C6C0083FB02135911D317CB1A642101FB03F335
:100C7C00D31A694A1360684B1B68002B02D1664B70
:100C8C0001221A600020FFF791FA0346002B00F0B6
:100C9C00B58000F019FE604B01221A605B4B0D22EF
:100CAC001A60ABE05A4B03221A605A4B1B68012B9B
:100CBC0006D14FF4FA71002000F050FF00F0E8FD6F
:100CCC000220FFF773FA0346002B0FD000F0FCFD57
:100CDC00514B1B684FF47A7202FB03F3514A1360B9
:100CEC004D4B01221A60494B0E221A600120FFF76E
:100CFC005DFA0346002B15D0474B1B685A1C484B1A
:100D0C0083FB02135911D317CB1A642101FB03F394
:100D1C00D31A414A1360404B1B68002B02D13E4B47
:100D2C0001221A600020FFF741FA0346002B67D01E
:100D3C0000F0CAFD384B01221A60344B0E221A60A7
:100D4C005EE0334B04221A60324B1B68012B06D138
:100D5C004FF4FA71002000F001FF00F0A7FD022013
:100D6C00FFF724FA0346002B15D000F0ADFD2A4BFB
:100D7C001B684FF47A7202FB03F32B4A1360264B69
:100D8C0001221A60294B10221A60294B10221A607A
:100D9C001E4B0F221A600120FFF708FA0346002BA6
:100DAC0015D01D4B1B685A1C1D4B83FB021359118C
:100DBC00D317CB1A642101FB03F3D31A164A136021
:100DCC00154B1B68002B02D1134B01221A6000201B
:100DDC00FFF7ECF90346002B14D00F4B01221A60DD
:100DEC0000F072FD114B10221A60114B10221A6088
:100DFC00064B0F221A6005E000BF04E000BF02E0C2
:100E0C0000BF00E000BF00BF80BD00BF600000203D
:100E1C00740000203C0100207000002064000020C1
:100E2C001F85EB51680000206C000020B8000020EA
:100E3C00BC00002080B500AFFFF782F900F0BCFBCE
:100E4C0000F042FD6421042000F088FE01224FF4E2
:100E5C008041144801F085FA01224FF400411148F9
:100E6C0001F07FFA012201210F4801F07AFA0022E9
:100E7C0002210D4801F075FA002204210A4801F004
:100E8C0070FA00220821084801F06BFA00221021A8
:100E9C00054801F066FA01222021034801F061FAAD
:100EAC0000BF80BD00080140000C014080B582B03D
:100EBC0000AF78607B68082B00F2908101A252F899
:100ECC0023F000BFF50E0008490F00089D0F000825
:100EDC00F10F00084510000899100008ED100008EB
:100EEC00411100089511000800228021D24801F020
:100EFC0038FA00224FF48071CF4801F032FA002208
:100F0C004FF40071CC4801F02CFA00224FF48061B0
:100F1C00C94801F026FA00224FF40061C64801F0DE
:100F2C0020FA00224FF48051C34801F01AFA012232
:100F3C004FF40051C04801F014FA79E101228021EC
:100F4C00BD4801F00EFA00224FF48071BA4801F04E
:100F5C0008FA00224FF40071B74801F002FA01229E
:100F6C004FF48061B44801F0FCF901224FF40061A8
:100F7C00B14801F0F6F901224FF48051AE4801F06E
:100F8C00F0F901224FF40051AB4801F0EAF94FE1BE
:100F9C0000228021A84801F0E4F900224FF480716E
:100FAC00A54801F0DEF901224FF40071A24801F0CE
:100FBC00D8F900224FF480619F4801F0D2F9002249
:100FCC004FF400619C4801F0CCF901224FF48051A0
:100FDC00994801F0C6F900224FF40051964801F0EF
:100FEC00C0F925E100228021934801F0BAF90022D2
:100FFC004FF48071904801F0B4F900224FF4007165
:10100C008D4801F0AEF900224FF480618A4801F05E
:10101C00A8F901224FF40061874801F0A2F90122DE
:10102C004FF48051844801F09CF900224FF4005198
:10103C00814801F096F9FBE0012280217E4801F005
:10104C0090F900224FF480717B4801F08AF900225C
:10105C004FF40071784801F084F901224FF480615B
:10106C00754801F07EF901224FF40061724801F0DD
:10107C0078F900224FF480516F4801F072F9002288
:10108C004FF400516C4801F06CF9D1E00022802142
:10109C00694801F066F901224FF48071664801F04D
:1010AC0060F900224FF40071634801F05AF90022F4
:1010BC004FF48061604801F054F901224FF4006153
:1010CC005D4801F04EF900224FF480515A4801F06E
:1010DC0048F900224FF40051574801F042F9A7E0BB
:1010EC0000228021544801F03CF901224FF4807118
:1010FC00514801F036F900224FF400714E4801F0CE
:10110C0030F900224FF480614B4801F02AF900229B
:10111C004FF40061484801F024F900224FF480514B
:10112C00454801F01EF900224FF40051424801F0ED
:10113C0018F97DE0002280213F4801F012F90022CD
:10114C004FF480713C4801F00CF900224FF400710F
:10115C00394801F006F901224FF48061364801F05C
:10116C0000F901224FF40061334801F0FAF8012232
:10117C004FF48051304801F0F4F801224FF4005143
:10118C002D4801F0EEF853E0002280212A4801F0AE
:10119C00E8F800224FF48071274801F0E2F80022B1
:1011AC004FF40071244801F0DCF800224FF4806108
:1011BC00214801F0D6F800224FF400611E4801F0DE
:1011CC00D0F800224FF480511B4801F0CAF80022DD
:1011DC004FF40051184801F0C4F829E00022802196
:1011EC00154801F0BEF800224FF48071124801F04E
:1011FC00B8F800224FF400710F4801F0B2F8002249
:10120C004FF480610C4801F0ACF801224FF40061FE
:10121C00094801F0A6F800224FF48051064801F06D
:10122C00A0F800224FF40051034801F09AF800BFD7
:10123C0000BF0837BD4680BD0008014080B582B0B4
:10124C0000AF78607B68082B00F2878101A252F80E
:10125C0023F000BF85120008D712000829130008DC
:10126C007B130008CD1300081F140008711400082C
:10127C00C31400081515000800224021CD4801F0C8
:10128C0070F800228021CB4801F06BF800224FF45B
:10129C008071C84801F065F800224FF40071C54810
:1012AC0001F05FF800224FF48061C24801F059F858
:1012BC0000224FF40061BF4801F053F801224FF4B3
:1012CC008051BC4801F04DF870E101224021B94831
:1012DC0001F047F800228021B64801F042F80022C4
:1012EC004FF48071B34801F03CF801224FF40071C7
:1012FC00B04801F036F801224FF48061AD4801F09E
:10130C0030F801224FF40061AA4801F02AF80122BA
:10131C004FF48051A74801F024F847E10022402106
:10132C00A44801F01EF800228021A24801F019F80F
:10133C0001224FF480719F4801F013F800224FF402
:10134C0000719C4801F00DF800224FF4806199481F
:10135C0001F007F801224FF40061964801F001F802
:10136C0000224FF48051934800F0FBFF1EE1002255
:10137C004021904800F0F5FF002280218D4800F0BC
:10138C00F0FF00224FF480718A4800F0EAFF00223F
:10139C004FF40071874800F0E4FF01224FF48061A4
:1013AC00844800F0DEFF01224FF40061814800F018
:1013BC00D8FF00224FF480517E4800F0D2FFF5E0B8
:1013CC00012240217B4800F0CCFF0022802179488B
:1013DC0000F0C7FF00224FF48071764800F0C1FF87
:1013EC0001224FF40071734800F0BBFF01224FF44F
:1013FC008061704800F0B5FF00224FF400616D4829
:10140C0000F0AFFF00224FF480516A4800F0A9FFB2
:10141C00CCE000224021674800F0A3FF012280218C
:10142C00644800F09EFF00224FF48071614800F088
:10143C0098FF00224FF400715E4800F092FF0122E9
:10144C004FF480615B4800F08CFF00224FF4006188
:10145C00584800F086FF00224FF48051554800F0A8
:10146C0080FFA3E000224021524800F07AFF0122C5
:10147C008021504800F075FF00224FF480714D48D8
:10148C0000F06FFF00224FF400714A4800F069FF32
:10149C0000224FF48061474800F063FF00224FF4B4
:1014AC000061444800F05DFF00224FF48051414838
:1014BC0000F057FF7AE0002240213E4800F051FF37
:1014CC00002280213B4800F04CFF00224FF4807139
:1014DC00384800F046FF01224FF40071354800F007
:1014EC0040FF01224FF48061324800F03AFF0122A4
:1014FC004FF400612F4800F034FF01224FF480516B
:10150C002C4800F02EFF51E000224021294800F029
:10151C0028FF00228021274800F023FF00224FF4EF
:10152C008071244800F01DFF00224FF40071214807
:10153C0000F017FF00224FF480611E4800F011FFED
:10154C0000224FF400611B4800F00BFF00224FF407
:10155C008051184800F005FF28E000224021154872
:10156C0000F0FFFE00228021124800F0FAFE00225B
:10157C004FF480710F4800F0F4FE00224FF400711C
:10158C000C4800F0EEFE01224FF48061094800F097
:10159C00E8FE00224FF40061064800F0E2FE002253
:1015AC004FF48051034800F0DCFE00BF00BF083749
:1015BC00BD4680BD000C014080B500AF01228021EA
:1015CC00284800F0CEFE01224FF48071254800F02F
:1015DC00C8FE01224FF40071224800F0C2FE012225
:1015EC004FF480611F4800F0BCFE01224FF40061F3
:1015FC001C4800F0B6FE01224FF48051194800F04F
:10160C00B0FE01224FF40051164800F0AAFE012250
:10161C004021154800F0A5FE01228021124800F05F
:10162C00A0FE01224FF480710F4800F09AFE0122B7
:10163C004FF400710C4800F094FE01224FF48061CD
:10164C00094800F08EFE01224FF40061064800F0BC
:10165C0088FE01224FF48051034800F082FE00BF47
:10166C0080BD00BF00080140000C014080B500AFF8
:10167C00384B1B69012B6AD16421042000F06EFAEF
:10168C00354B1B68002B02D0012B2AD053E0334B77
:10169C001B681A68324B83FB02139910D317C91AB3
:1016AC000B469B000B445B00D11A0846FFF7FEFB70
:1016BC002A4B1B681B682A4A82FB03129210DB1709
:1016CC00D31A1846FFF7BAFD00224FF48041254883
:1016DC0000F047FE01224FF40041224800F041FE89
:1016EC0029E0214B1B681A681D4B83FB02139910D0
:1016FC00D317C91A0B469B000B445B00D11A084642
:10170C00FFF7D4FB184B1B681B68154A82FB0312AE
:10171C009210DB17D31A1846FFF790FD01224FF4F5
:10172C008041104800F01DFE00224FF400410D488E
:10173C0000F017FE00BF084B1B680133064A13600C
:10174C00054B1B68012B02DD034B00221A6000BF06
:10175C0080BD00BF3C010020C0000020C80000205C
:10176C006766666600080140C400002080B500AFC3
:10177C0001220121074800F0F4FD00220421054854
:10178C0000F0EFFD00220221024800F0EAFD00BF4C
:10179C0080BD00BF000C014080B500AF00220121CC
:1017AC00074800F0DEFD00220421054800F0D9FDB9
:1017BC0001220221024800F0D4FD00BF80BD00BF11
:1017CC00000C014080B500AF00220121074800F059
:1017DC00C8FD01220421054800F0C3FD00220221AE
:1017EC00024800F0BEFD00BF80BD00BF000C0140F0
:1017FC0080B500AF01220821074800F0B2FD00229D
:10180C002021054800F0ADFD00221021024800F017
:10181C00A8FD00BF80BD00BF000C014080B500AF2B
:10182C0000220821074800F09CFD002220210548D9
:10183C0000F097FD01221021024800F092FD00BF3C
:10184C0080BD00BF000C014080B500AF0022082114
:10185C00074800F086FD01222021054800F081FD9B
:10186C0000221021024800F07CFD00BF80BD00BFAB
:10187C00000C014080B500AF0121044800F089FD47
:10188C000821024800F085FD00BF80BD000C01401E
:10189C0080B500AF0221044800F07BFD1021024806
:1018AC0000F077FD00BF80BD000C014080B500AF9B
:1018BC000421044800F06DFD2021024800F069FD70
:1018CC0000BF80BD000C014080B500AF002201219B
:1018DC000E4800F046FD002204210C4800F041FDAA
:1018EC0000220221094800F03CFD00220821074893
:1018FC0000F037FD00222021044800F032FD0022C8
:10190C001021024800F02DFD00BF80BD000C0140ED
:10191C0080B500AF00F024FA00F014F800F09AF84B
:10192C0000F04CF8064801F079F9FFF783FAFEF75E
:10193C00F1FCFEF725FFFFF751F9FFF797FEF6E7ED
:10194C00CC00002080B590B000AF07F1180328221E
:10195C000021184601F012FD3B1D00221A605A604E
:10196C009A60DA601A610223BB610123BB62102307
:10197C00FB6200237B6307F11803184600F022FD7D
:10198C000346002B01D000F0E3F80F237B6000230B
:10199C00BB600023FB6000233B6100237B613B1D8C
:1019AC000021184600F08EFF0346002B01D000F0FA
:1019BC00CFF800BF4037BD4680BD000080B586B073
:1019CC0000AF07F1080300221A605A609A60DA60CF
:1019DC003B4600221A605A601D4B4FF080421A6041
:1019EC001B4B41F63F725A60194B00229A60184B00
:1019FC000922DA60164B00221A61154B00229A61FB
:101A0C00134801F0BBF80346002B01D000F0A0F8FE
:101A1C004FF48053BB6007F1080319460C4801F0E2
:101A2C0039FA0346002B01D000F092F800233B60FA
:101A3C0000237B603B461946054801F011FC034628
:101A4C00002B01D000F084F800BF1837BD4680BDD4
:101A5C00CC00002080B588B000AF07F11003002245
:101A6C001A605A609A60DA602F4B9B692E4A43F0D9
:101A7C00100393612C4B9B6903F01003FB60FB6814
:101A8C00294B9B69284A43F004039361264B9B69BD
:101A9C0003F00403BB60BB68234B9B69224A43F0F1
:101AAC0008039361204B9B6903F008037B607B6800
:101ABC0000224FF6E0711D4800F053FC002241F665
:101ACC00FF711B4800F04DFC4FF460433B61002359
:101ADC007B610123BB6107F110031946154800F027
:101AEC00AFFA4FF6E0733B6101237B610023BB61CE
:101AFC000223FB6107F1100319460C4800F0A0FA11
:101B0C0041F6FF733B6101237B610023BB61022320
:101B1C00FB6107F110031946054800F091FA00BF6C
:101B2C002037BD4680BD00BF0010024000080140B8
:101B3C00000C01400010014080B582B000AF78600D
:101B4C0000F02AF8FEF75CFB00BF0837BD4680BDED
:101B5C0080B400AF72B600BFFEE7000080B483B063
:101B6C0000AF78603960094A7B68002142F8231085
:101B7C00074B1B683A6892FBF3F206497B6841F805
:101B8C00232000BF0C37BD4680BC70473C010020B1
:101B9C00780000201401002080B483B000AF002333
:101BAC007B601CE0124A7B6852F82330002B08DD66
:101BBC000F4A7B6852F823305A1E0D497B6841F856
:101BCC0023200B4A7B6852F82330002B04DC094A93
:101BDC007B68012142F823107B6801337B607B68B2
:101BEC00092BDFDD00BF00BF0C37BD4680BC704742
:101BFC00140100203C01002080B485B000AF154BCF
:101C0C009B69144A43F001039361124B9B6903F0E7
:101C1C000103BB60BB680F4BDB690E4A43F080537A
:101C2C00D3610C4BDB6903F080537B607B680A4B00
:101C3C005B68FB60FB6823F0E063FB60FB6843F0D0
:101C4C008063FB60044AFB68536000BF1437BD46D9
:101C5C0080BC7047001002400000014080B584B089
:101C6C0000AF78607B681B68B3F1804F13D10C4BCD
:101C7C00DB690B4A43F00103D361094BDB6903F0C9
:101C8C000103FB60FB68002200211C2000F0A1F97D
:101C9C001C2000F0BAF900BF1037BD4680BD00BF54
:101CAC000010024080B400AFFEE780B400AFFEE746
:101CBC0080B400AFFEE780B400AFFEE780B400AFA5
:101CCC00FEE780B400AF00BFBD4680BC704780B457
:101CDC0000AF00BFBD4680BC704780B400AF00BFF2
:101CEC00BD4680BC704780B500AF00F07FF800BFE8
:101CFC0080BD000080B500AF024800F0DBFF00BFE4
:101D0C0080BD00BFCC00002080B400AF00BFBD463A
:101D1C0080BC7047FFF7F8FF0B480C490C4A0023B6
:101D2C0002E0D458C4500433C4188C42F9D3094A85
:101D3C00094C002301E013600432A242FBD301F0F2
:101D4C00F9FAFFF7E5FD704700000020880000203D
:101D5C00DC3300088800002068010020FEE700004A
:101D6C0080B500AF084B1B68074A43F010031360A3
:101D7C00032000F023F90F2000F008F8FFF73CFFD8
:101D8C000023184680BD00BF0020024080B582B001
:101D9C0000AF7860124B1A68124B1B7819464FF43F
:101DAC007A73B3FBF1F3B2FBF3F3184600F03BF993
:101DBC000346002B01D001230EE07B680F2B0AD8C1
:101DCC00002279684FF0FF3000F003F9064A7B6877
:101DDC001360002300E0012318460837BD4680BD80
:101DEC007C000020840000208000002080B400AF24
:101DFC00054B1B781A46054B1B681344034A1360AA
:101E0C0000BFBD4680BC70478400002064010020E8
:101E1C0080B400AF024B1B681846BD4680BC7047AF
:101E2C006401002080B485B000AF78607B6803F05B
:101E3C000703FB600C4BDB68BB60BA684FF6FF0313
:101E4C001340BB60FB681A02BB68134343F0BF63CB
:101E5C0043F40033BB60044ABB68D36000BF143743
:101E6C00BD4680BC704700BF00ED00E080B400AF01
:101E7C00044BDB681B0A03F007031846BD4680BC05
:101E8C00704700BF00ED00E080B483B000AF0346A4
:101E9C00FB7197F90730002B0BDBFB7903F01F026A
:101EAC00064997F907305B09012000FA02F241F864
:101EBC00232000BF0C37BD4680BC704700E100E01A
:101ECC0080B483B000AF03463960FB7197F90730DB
:101EDC00002B0ADB3B68DAB20C4997F90730120188
:101EEC00D2B20B4483F800230AE03B68DAB208490B
:101EFC00FB7903F00F03043B1201D2B20B441A76A8
:101F0C0000BF0C37BD4680BC704700BF00E100E04D
:101F1C0000ED00E080B489B000AFF860B9607A6081
:101F2C00FB6803F00703FB61FB69C3F10703042B98
:101F3C0028BF0423BB61FB690433062B02D9FB6960
:101F4C00033B00E000237B614FF0FF32BB6902FAD8
:101F5C0003F3DA43BB681A407B699A404FF0FF31B8
:101F6C007B6901FA03F3D9437B680B401343184692
:101F7C002437BD4680BC704780B582B000AF786016
:101F8C007B68013BB3F1807F01D301230FE00A4A48
:101F9C007B68013B53600F214FF0FF30FFF790FF40
:101FAC00054B00229A60044B07221A600023184646
:101FBC000837BD4680BD00BF10E000E080B582B0A0
:101FCC0000AF78607868FFF72DFF00BF0837BD467B
:101FDC0080BD80B586B000AF0346B9607A60FB73F4
:101FEC0000237B61FFF742FF78617A68B9687869F2
:101FFC00FFF790FF024697F90F3011461846FFF78E
:10200C005FFF00BF1837BD4680BD80B582B000AF02
:10201C000346FB7197F907301846FFF735FF00BFF1
:10202C000837BD4680BD80B582B000AF7860786857
:10203C00FFF7A2FF034618460837BD4680BD0000D7
:10204C0080B48BB000AF7860396000237B620023D2
:10205C003B6248E101227B6A02FA03F3FB613B68B5
:10206C001B68FA691340BB61BA69FB699A4240F07C
:10207C0037813B685B68A34A93425ED0A14A934286
:10208C0075D8A14A934258D09F4A93426FD89F4A21
:10209C00934252D09D4A934269D89D4A93424CD068
:1020AC009B4A934263D89B4A934246D0994A9342A7
:1020BC005DD8122B2AD8122B59D801A252F823F032
:1020CC004721000821210008332100087521000850
:1020DC007B2100087B2100087B2100087B21000864
:1020EC007B2100087B2100087B2100087B21000854
:1020FC007B2100087B2100087B2100087B21000844
:10210C007B210008292100083D210008824A9342C6
:10211C0013D02CE03B68DB683B6229E03B68DB6852
:10212C0004333B6224E03B68DB6808333B621FE00E
:10213C003B68DB680C333B621AE03B689B68002B06
:10214C0002D104233B6213E03B689B68012B05D151
:10215C0008233B627B68FA691A6109E008233B6239
:10216C007B68FA695A6103E000233B6200E000BF20
:10217C00BB69FF2B01D87B6801E07B6804337B6172
:10218C00BB69FF2B02D87B6A9B0002E07B6A083B91
:10219C009B003B617B691A680F213B6901FA03F3D1
:1021AC00DB431A40396A3B6901FA03F31A437B6932
:1021BC001A603B685B6803F08053002B00F0908042
:1021CC00564B9B69554A43F001039361534B9B69F2
:1021DC0003F00103BB60BB68514A7B6A9B08023366
:1021EC0052F82330FB607B6A03F003039B000F2241
:1021FC0002FA03F3DB43FA681340FB607B68494A3D
:10220C0093420DD07B68484A934207D07B68474A7B
:10221C00934201D1022304E0032302E0012300E0F6
:10222C0000237A6A02F0030292009340FA68134387
:10223C00FB603B497B6A9B080233FA6841F8232018
:10224C003B685B6803F48013002B06D0384B9A680C
:10225C003749BB6913438B6006E0354B9A68BB6901
:10226C00DB43334913408B603B685B6803F400131A
:10227C00002B06D02E4BDA682D49BB691343CB607B
:10228C0006E02B4BDA68BB69DB4329491340CB6072
:10229C003B685B6803F40033002B06D0244B5A6870
:1022AC002349BB6913434B6006E0214B5A68BB6959
:1022BC00DB431F4913404B603B685B6803F480337E
:1022CC00002B06D01A4B1A681949BB6913430B60D3
:1022DC0006E0174B1A68BB69DB43154913400B60CA
:1022EC007B6A01337B623B681A687B6A22FA03F3D0
:1022FC00002B7FF4AFAE00BF00BF2C37BD4680BCB7
:10230C00704700BF00003210000031100000221096
:10231C0000002110000012100000111000100240EB
:10232C000000014000080140000C01400010014079
:10233C000004014080B485B000AF78600B467B8010
:10234C007B689A687B881340002B02D00123FB73B7
:10235C0001E00023FB73FB7B18461437BD4680BCA1
:10236C00704780B483B000AF78600B467B80134617
:10237C007B707B78002B03D07A887B681A6103E032
:10238C007B881A047B681A6100BF0C37BD4680BC81
:10239C00704780B485B000AF78600B467B807B685B
:1023AC00DB68FB607A88FB6813401A04FB68D9432E
:1023BC007B880B401A437B681A6100BF1437BD46FB
:1023CC0080BC704780B586B000AF78607B68002B0E
:1023DC0001D101236CE27B681B6803F00103002B25
:1023EC0000F08780924B5B6803F00C03042B0CD03D
:1023FC008F4B5B6803F00C03082B12D18C4B5B6882
:10240C0003F48033B3F5803F0BD1894B1B6803F485
:10241C000033002B6CD07B685B68002B68D10123E8
:10242C0046E27B685B68B3F5803F06D1804B1B6846
:10243C007F4A43F4803313602EE07B685B68002B8B
:10244C000CD17B4B1B687A4A23F480331360784B96
:10245C001B68774A23F4802313601DE07B685B685C
:10246C00B3F5A02F0CD1724B1B68714A43F4802337
:10247C0013606F4B1B686E4A43F4803313600BE0A0
:10248C006B4B1B686A4A23F480331360684B1B68E0
:10249C00674A23F4802313607B685B68002B13D09E
:1024AC00FFF7B6FC386108E0FFF7B2FC02463B6967
:1024BC00D31A642B01D90323FAE15D4B1B6803F497
:1024CC000033002BF0D014E0FFF7A2FC386108E0D9
:1024DC00FFF79EFC02463B69D31A642B01D90323F8
:1024EC00E6E1534B1B6803F40033002BF0D100E002
:1024FC0000BF7B681B6803F00203002B63D04C4BBE
:10250C005B6803F00C03002B0BD0494B5B6803F0AA
:10251C000C03082B1CD1464B5B6803F48033002B57
:10252C0016D1434B1B6803F00203002B05D07B68CC
:10253C001B69012B01D00123BAE13D4B1B6823F031
:10254C00F8027B685B69DB00394913430B603AE0A6
:10255C007B681B69002B20D0364B01221A60FFF7D9
:10256C0057FC386108E0FFF753FC02463B69D31A6D
:10257C00022B01D903239BE12D4B1B6803F00203B3
:10258C00002BF0D02A4B1B6823F0F8027B685B69A8
:10259C00DB00274913430B6015E0264B00221A6021
:1025AC00FFF736FC386108E0FFF732FC02463B6966
:1025BC00D31A022B01D903237AE11D4B1B6803F0BC
:1025CC000203002BF0D17B681B6803F00803002B7F
:1025DC003AD07B689B69002B19D0174B01221A60EB
:1025EC00FFF716FC386108E0FFF712FC02463B6966
:1025FC00D31A022B01D903235AE10D4B5B6A03F06A
:10260C000203002BF0D0012000F09AFA1CE00A4BD8
:10261C0000221A60FFF7FCFB38610FE0FFF7F8FBB4
:10262C0002463B69D31A022B08D9032340E100BFB1
:10263C000010024000004242800442429E4B5B6A02
:10264C0003F00203002BE9D17B681B6803F0040341
:10265C00002B00F0A6800023FB75974BDB6903F081
:10266C008053002B0DD1944BDB69934A43F080537C
:10267C00D361914BDB6903F08053BB60BB680123D2
:10268C00FB758E4B1B6803F48073002B18D18B4B9E
:10269C001B688A4A43F480731360FFF7B9FB3861F7
:1026AC0008E0FFF7B5FB02463B69D31A642B01D94E
:1026BC000323FDE0814B1B6803F48073002BF0D0E7
:1026CC007B68DB68012B06D17B4B1B6A7A4A43F093
:1026DC00010313622DE07B68DB68002B0CD1764B79
:1026EC001B6A754A23F001031362734B1B6A724A0F
:1026FC0023F0040313621CE07B68DB68052B0CD110
:10270C006D4B1B6A6C4A43F0040313626A4B1B6AE1
:10271C00694A43F0010313620BE0674B1B6A664A7C
:10272C0023F001031362644B1B6A634A23F0040316
:10273C0013627B68DB68002B15D0FFF769FB3861EF
:10274C000AE0FFF765FB02463B69D31A41F2883277
:10275C00934201D90323ABE0574B1B6A03F00203EE
:10276C00002BEED014E0FFF753FB38610AE0FFF7C3
:10277C004FFB02463B69D31A41F28832934201D98E
:10278C00032395E04C4B1B6A03F00203002BEED1A4
:10279C00FB7D012B05D1484BDB69474A23F0805365
:1027AC00D3617B68DB69002B00F08180424B5B6856
:1027BC0003F00C03082B61D07B68DB69022B46D13C
:1027CC003F4B00221A60FFF723FB386108E0FFF74C
:1027DC001FFB02463B69D31A022B01D9032367E086
:1027EC00354B1B6803F00073002BF0D17B681B6A20
:1027FC00B3F5803F08D1304B5B6823F400327B6823
:10280C009B682D4913434B602B4B5B6823F474126C
:10281C007B68196A7B685B6A0B43274913434B60DF
:10282C00274B01221A60FFF7F3FA386108E0FFF733
:10283C00EFFA02463B69D31A022B01D9032337E086
:10284C001D4B1B6803F00073002BF0D02FE01C4BCA
:10285C0000221A60FFF7DCFA386108E0FFF7D8FABB
:10286C0002463B69D31A022B01D9032320E0124BF9
:10287C001B6803F00073002BF0D118E07B68DB6958
:10288C00012B01D1012313E00B4B5B68FB60FB6850
:10289C0003F480327B681B6A9A4206D1FB6803F40E
:1028AC0070127B685B6A9A4201D0012300E000231E
:1028BC0018461837BD4680BD00100240007000401D
:1028CC006000424280B584B000AF786039607B68AC
:1028DC00002B01D10123D0E06A4B1B6803F00703E6
:1028EC003A689A4210D9674B1B6823F00702654976
:1028FC003B6813430B60634B1B6803F007033A6898
:10290C009A4201D00123B8E07B681B6803F00203F4
:10291C00002B20D07B681B6803F00403002B05D030
:10292C00594B5B68584A43F4E06353607B681B68FF
:10293C0003F00803002B05D0534B5B68524A43F459
:10294C0060535360504B5B6823F0F0027B689B68CC
:10295C004D4913434B607B681B6803F00103002B4C
:10296C0040D07B685B68012B07D1474B1B6803F495
:10297C000033002B15D101237FE07B685B68022BB1
:10298C0007D1414B1B6803F00073002B09D10123C5
:10299C0073E03D4B1B6803F00203002B01D10123B4
:1029AC006BE0394B5B6823F003027B685B6836494C
:1029BC0013434B60FFF72CFAF8600AE0FFF728FA94
:1029CC000246FB68D31A41F28832934201D90323A1
:1029DC0053E02D4B5B6803F00C027B685B689B003B
:1029EC009A42EBD1274B1B6803F007033A689A42D3
:1029FC0010D2244B1B6823F0070222493B68134377
:102A0C000B60204B1B6803F007033A689A4201D015
:102A1C00012332E07B681B6803F00403002B08D011
:102A2C00194B5B6823F4E0627B68DB68164913433F
:102A3C004B607B681B6803F00803002B09D0124B1A
:102A4C005B6823F460527B681B69DB000E491343FF
:102A5C004B6000F021F802460B4B5B681B0903F03E
:102A6C000F030A49CB5C22FA03F3094A1360094BA2
:102A7C001B681846FFF78AF9002318461037BD4625
:102A8C0080BD00BF0020024000100240B03300089F
:102A9C007C0000208000002080B487B000AF0023B1
:102AAC00FB600023BB6000237B6100237B60002361
:102ABC003B611E4B5B68FB60FB6803F00C03042B53
:102ACC0002D0082B03D027E0194B3B6127E0FB68B1
:102ADC009B0C03F00F03174AD35C7B60FB6803F479
:102AEC008033002B10D0114B5B685B0C03F001039F
:102AFC00114AD35CBB607B680D4A02FB03F2BB68D6
:102B0C00B2FBF3F37B6104E07B680C4A02FB03F33A
:102B1C007B617B693B6102E0054B3B6100BF3B691C
:102B2C0018461C37BD4680BC704700BF00100240E1
:102B3C0000127A00C0330008D033000800093D00B1
:102B4C0080B485B000AF78600A4B1B680A4AA2FBC0
:102B5C0003235B0A7A6802FB03F3FB6000BFFB688C
:102B6C005A1EFA60002BF9D100BF00BF1437BD46C6
:102B7C0080BC70477C000020D34D621080B582B0C1
:102B8C0000AF78607B68002B01D1012341E07B68AA
:102B9C0093F83D30DBB2002B06D17B68002283F822
:102BAC003C207868FFF75AF87B68022283F83D20B6
:102BBC007B681A687B6804331946104600F056FA95
:102BCC007B68012283F846207B68012283F83E2033
:102BDC007B68012283F83F207B68012283F8402028
:102BEC007B68012283F841207B68012283F8422014
:102BFC007B68012283F843207B68012283F8442000
:102C0C007B68012283F845207B68012283F83D20F4
:102C1C00002318460837BD4680BD000080B485B03F
:102C2C0000AF78607B6893F83D30DBB2012B01D0AC
:102C3C00012335E07B68022283F83D207B681B680A
:102C4C00DA687B681B6842F00102DA607B681B68FB
:102C5C00164A934209D07B681B68B3F1804F04D0AD
:102C6C007B681B68124A934211D17B681B689B6876
:102C7C0003F00703FB60FB68062B10D07B681B6816
:102C8C001A687B681B6842F001021A6007E07B68D7
:102C9C001B681A687B681B6842F001021A600023EB
:102CAC0018461437BD4680BC704700BF002C01404D
:102CBC000004004080B584B000AF78607B681B686E
:102CCC00DB68FB607B681B681B69BB60BB6803F03F
:102CDC000203002B20D0FB6803F00203002B1BD057
:102CEC007B681B686FF002021A617B6801221A77FD
:102CFC007B681B689B6903F00303002B03D0786887
:102D0C0000F098F905E0786800F08BF9786800F02D
:102D1C009AF97B6800221A77BB6803F00403002B36
:102D2C0020D0FB6803F00403002B1BD07B681B68CE
:102D3C006FF004021A617B6802221A777B681B68A9
:102D4C009B6903F44073002B03D0786800F072F990
:102D5C0005E0786800F065F9786800F074F97B6834
:102D6C0000221A77BB6803F00803002B20D0FB6805
:102D7C0003F00803002B1BD07B681B686FF0080264
:102D8C001A617B6804221A777B681B68DB6903F085
:102D9C000303002B03D0786800F04CF905E0786849
:102DAC0000F03FF9786800F04EF97B6800221A7742
:102DBC00BB6803F01003002B20D0FB6803F010035A
:102DCC00002B1BD07B681B686FF010021A617B68AC
:102DDC0008221A777B681B68DB6903F44073002BAD
:102DEC0003D0786800F026F905E0786800F019F94E
:102DFC00786800F028F97B6800221A77BB6803F02A
:102E0C000103002B0CD0FB6803F00103002B07D04F
:102E1C007B681B686FF001021A617868FEF78CFE04
:102E2C00BB6803F08003002B0CD0FB6803F080031D
:102E3C00002B07D07B681B686FF080021A617868E2
:102E4C0000F06FFABB6803F04003002B0CD0FB685A
:102E5C0003F04003002B07D07B681B686FF0400227
:102E6C001A61786800F0F8F8BB6803F02003002BB7
:102E7C000CD0FB6803F02003002B07D07B681B6889
:102E8C006FF020021A61786800F042FA00BF103728
:102E9C00BD4680BD80B584B000AF7860396000233A
:102EAC00FB737B6893F83C30012B01D10223B4E017
:102EBC007B68012283F83C207B68022283F83D204A
:102ECC007B681B689B68BB60BB6823F07703BB60A7
:102EDC00BB6823F47F43BB607B681B68BA689A604D
:102EEC003B681B68B3F5005F3ED0B3F5005F00F2A2
:102EFC008780B3F5805F00F08680B3F5805F7FD864
:102F0C00702B1AD0702B7BD8602B50D0602B77D8BD
:102F1C00502B3CD0502B73D8402B58D0402B6FD813
:102F2C00302B64D0302B6BD8202B60D0202B67D863
:102F3C00002B5CD0102B5AD062E07B6818683B6881
:102F4C0099683B685A683B68DB6800F06AF97B68F3
:102F5C001B689B68BB60BB6843F07703BB607B68F6
:102F6C001B68BA689A604FE07B6818683B68996880
:102F7C003B685A683B68DB6800F053F97B681B6858
:102F8C009A687B681B6842F480429A603CE07B68DC
:102F9C0018683B6859683B68DB681A4600F0CAF849
:102FAC007B681B685021184600F021F92CE07B68E7
:102FBC0018683B6859683B68DB681A4600F0E8F80B
:102FCC007B681B686021184600F011F91CE07B68D7
:102FDC0018683B6859683B68DB681A4600F0AAF829
:102FEC007B681B684021184600F001F90CE07B68F7
:102FFC001A683B681B681946104600F0F8F803E0A5
:10300C000123FB7300E000BF7B68012283F83D20A5
:10301C007B68002283F83C20FB7B18461037BD46AA
:10302C0080BD80B483B000AF786000BF0C37BD4664
:10303C0080BC704780B483B000AF786000BF0C37A1
:10304C00BD4680BC704780B483B000AF786000BFD1
:10305C000C37BD4680BC704780B483B000AF78603D
:10306C0000BF0C37BD4680BC7047000080B485B0F3
:10307C0000AF786039607B681B68FB607B682B4A0B
:10308C00934207D07B68B3F1804F03D07B68284A0A
:10309C00934208D1FB6823F07003FB603B685B68CC
:1030AC00FA681343FB607B68204A934207D07B6825
:1030BC00B3F1804F03D07B681D4A934208D1FB6863
:1030CC0023F44073FB603B68DB68FA681343FB60D6
:1030DC00FB6823F080023B685B691343FB607B68F1
:1030EC00FA681A603B689A687B68DA623B681A680F
:1030FC007B689A627B680D4A934203D13B681A69DC
:10310C007B681A637B6801225A617B681B6903F038
:10311C000103002B05D07B681B6923F001027B683F
:10312C001A6100BF1437BD4680BC7047002C0140AB
:10313C000004004080B487B000AFF860B9607A60DA
:10314C00FB681B6A7B61FB681B6A23F00102FB684E
:10315C001A62FB689B693B613B6923F0F0033B619E
:10316C007B681B013A6913433B617B6923F00A03BB
:10317C007B617A69BB6813437B61FB683A699A612E
:10318C00FB687A691A6200BF1C37BD4680BC704769
:10319C0080B487B000AFF860B9607A60FB681B6AD6
:1031AC007B61FB681B6A23F01002FB681A62FB68E8
:1031BC009B693B613B6923F470433B617B681B0358
:1031CC003A6913433B617B6923F0A0037B61BB68C5
:1031DC001B017A6913437B61FB683A699A61FB684E
:1031EC007A691A6200BF1C37BD4680BC704780B438
:1031FC0085B000AF786039607B689B68FB60FB68CA
:10320C0023F07003FB603A68FB68134343F0070339
:10321C00FB607B68FA689A6000BF1437BD4680BCBF
:10322C00704780B487B000AFF860B9607A603B60DB
:10323C00FB689B687B617B6923F47F437B613B6804
:10324C001A027B681A43BB6813437A6913437B6188
:10325C00FB687A699A6000BF1C37BD4680BC70471A
:10326C0080B485B000AF786039607B6893F83C30EF
:10327C00012B01D1022341E07B68012283F83C2021
:10328C007B68022283F83D207B681B685B68FB60CF
:10329C007B681B689B68BB60FB6823F07003FB605A
:1032AC003B681B68FA681343FB607B681B68FA6811
:1032BC005A607B681B68144A934209D07B681B6870
:1032CC00B3F1804F04D07B681B68104A93420CD139
:1032DC00BB6823F08003BB603B685B68BA68134330
:1032EC00BB607B681B68BA689A607B68012283F8B4
:1032FC003D207B68002283F83C20002318461437BD
:10330C00BD4680BC704700BF002C0140000400404B
:10331C0080B483B000AF786000BF0C37BD4680BC72
:10332C00704780B483B000AF786000BF0C37BD46E7
:10333C0080BC704770B500260C4D0D4C641BA4105E
:10334C00A64209D100F022F800260A4D0A4C641B53
:10335C00A410A64205D170BD55F8043B9847013620
:10336C00EEE755F8043B98470136F2E7D4330008F2
:10337C00D4330008D4330008D83300080346024481
:10338C00934200D1704703F8011BF9E7F8B500BF71
:10339C00F8BC08BC9E467047F8B500BFF8BC08BC2A
:0433AC009E46704782
:1033B00000000000000000000102030406070809E5
:1033C00002030405060708090A0B0C0D0E0F101066
:0433D00001020000F6
:0433D40031010008BB
:0433D8000D010008DB
:1033DC0001000000000000000000000001000000DF
:1033EC0000000000000000000100000000000000D0
:1033FC0000000000010000000000000000000000C0
:10340C00C800000000000000000000000010014097
:10341C00001001400010014000200040008000001E
:10342C00010000000100000001000000010000008C
:10343C000F00000088130000D0070000B80B00003C
:10344C0001000000010000000A00000000127A00D8
:08345C00100000000100000057
:0400000508001D21B1
:00000001FF
